{
  "_format": "hh-sol-artifact-1",
  "contractName": "VeridaDIDRegistry",
  "sourceName": "contracts/VeridaDIDRegistry.sol",
  "abi": [
    {
      "anonymous": false,
      "inputs": [
        {
          "indexed": true,
          "internalType": "address",
          "name": "identity",
          "type": "address"
        },
        {
          "indexed": false,
          "internalType": "bytes32",
          "name": "name",
          "type": "bytes32"
        },
        {
          "indexed": false,
          "internalType": "bytes",
          "name": "value",
          "type": "bytes"
        },
        {
          "indexed": false,
          "internalType": "uint256",
          "name": "validTo",
          "type": "uint256"
        },
        {
          "indexed": false,
          "internalType": "address",
          "name": "proofId",
          "type": "address"
        },
        {
          "indexed": false,
          "internalType": "bytes",
          "name": "proof",
          "type": "bytes"
        },
        {
          "indexed": false,
          "internalType": "uint256",
          "name": "previousChange",
          "type": "uint256"
        }
      ],
      "name": "DIDAttributeChanged",
      "type": "event"
    },
    {
      "anonymous": false,
      "inputs": [
        {
          "indexed": true,
          "internalType": "address",
          "name": "identity",
          "type": "address"
        },
        {
          "indexed": false,
          "internalType": "bytes32",
          "name": "delegateType",
          "type": "bytes32"
        },
        {
          "indexed": false,
          "internalType": "address",
          "name": "delegate",
          "type": "address"
        },
        {
          "indexed": false,
          "internalType": "uint256",
          "name": "validTo",
          "type": "uint256"
        },
        {
          "indexed": false,
          "internalType": "uint256",
          "name": "previousChange",
          "type": "uint256"
        }
      ],
      "name": "DIDDelegateChanged",
      "type": "event"
    },
    {
      "anonymous": false,
      "inputs": [
        {
          "indexed": true,
          "internalType": "address",
          "name": "identity",
          "type": "address"
        },
        {
          "indexed": false,
          "internalType": "address",
          "name": "owner",
          "type": "address"
        },
        {
          "indexed": false,
          "internalType": "uint256",
          "name": "previousChange",
          "type": "uint256"
        }
      ],
      "name": "DIDOwnerChanged",
      "type": "event"
    },
    {
      "anonymous": false,
      "inputs": [
        {
          "indexed": false,
          "internalType": "uint8",
          "name": "version",
          "type": "uint8"
        }
      ],
      "name": "Initialized",
      "type": "event"
    },
    {
      "anonymous": false,
      "inputs": [
        {
          "indexed": true,
          "internalType": "address",
          "name": "previousOwner",
          "type": "address"
        },
        {
          "indexed": true,
          "internalType": "address",
          "name": "newOwner",
          "type": "address"
        }
      ],
      "name": "OwnershipTransferred",
      "type": "event"
    },
    {
      "inputs": [
        {
          "internalType": "address",
          "name": "identity",
          "type": "address"
        },
        {
          "internalType": "bytes32",
          "name": "delegateType",
          "type": "bytes32"
        },
        {
          "internalType": "address",
          "name": "delegate",
          "type": "address"
        },
        {
          "internalType": "uint256",
          "name": "validity",
          "type": "uint256"
        },
        {
          "internalType": "bytes",
          "name": "signature",
          "type": "bytes"
        }
      ],
      "name": "addDelegate",
      "outputs": [],
      "stateMutability": "nonpayable",
      "type": "function"
    },
    {
      "inputs": [
        {
          "internalType": "address",
          "name": "identity",
          "type": "address"
        },
        {
          "components": [
            {
              "internalType": "bytes32",
              "name": "delegateType",
              "type": "bytes32"
            },
            {
              "internalType": "address",
              "name": "delegate",
              "type": "address"
            },
            {
              "internalType": "uint256",
              "name": "validity",
              "type": "uint256"
            }
          ],
          "internalType": "struct VeridaDIDRegistry.DelegateParam[]",
          "name": "delegateParams",
          "type": "tuple[]"
        },
        {
          "components": [
            {
              "internalType": "bytes32",
              "name": "name",
              "type": "bytes32"
            },
            {
              "internalType": "bytes",
              "name": "value",
              "type": "bytes"
            },
            {
              "internalType": "uint256",
              "name": "validity",
              "type": "uint256"
            },
            {
              "internalType": "address",
              "name": "proofId",
              "type": "address"
            },
            {
              "internalType": "bytes",
              "name": "proof",
              "type": "bytes"
            }
          ],
          "internalType": "struct VeridaDIDRegistry.AttributeParam[]",
          "name": "attributeParams",
          "type": "tuple[]"
        },
        {
          "internalType": "bytes",
          "name": "signature",
          "type": "bytes"
        }
      ],
      "name": "bulkAdd",
      "outputs": [],
      "stateMutability": "nonpayable",
      "type": "function"
    },
    {
      "inputs": [
        {
          "internalType": "address",
          "name": "identity",
          "type": "address"
        },
        {
          "components": [
            {
              "internalType": "bytes32",
              "name": "delegateType",
              "type": "bytes32"
            },
            {
              "internalType": "address",
              "name": "delegate",
              "type": "address"
            }
          ],
          "internalType": "struct VeridaDIDRegistry.RevokeDelegateParam[]",
          "name": "delegateParams",
          "type": "tuple[]"
        },
        {
          "components": [
            {
              "internalType": "bytes32",
              "name": "name",
              "type": "bytes32"
            },
            {
              "internalType": "bytes",
              "name": "value",
              "type": "bytes"
            }
          ],
          "internalType": "struct VeridaDIDRegistry.RevokeAttributeParam[]",
          "name": "attributeParams",
          "type": "tuple[]"
        },
        {
          "internalType": "bytes",
          "name": "signature",
          "type": "bytes"
        }
      ],
      "name": "bulkRevoke",
      "outputs": [],
      "stateMutability": "nonpayable",
      "type": "function"
    },
    {
      "inputs": [
        {
          "internalType": "address",
          "name": "identity",
          "type": "address"
        },
        {
          "internalType": "address",
          "name": "newOwner",
          "type": "address"
        },
        {
          "internalType": "bytes",
          "name": "signature",
          "type": "bytes"
        }
      ],
      "name": "changeOwner",
      "outputs": [],
      "stateMutability": "nonpayable",
      "type": "function"
    },
    {
      "inputs": [
        {
          "internalType": "address",
          "name": "",
          "type": "address"
        }
      ],
      "name": "changed",
      "outputs": [
        {
          "internalType": "uint256",
          "name": "",
          "type": "uint256"
        }
      ],
      "stateMutability": "view",
      "type": "function"
    },
    {
      "inputs": [
        {
          "internalType": "address",
          "name": "did",
          "type": "address"
        }
      ],
      "name": "getNonce",
      "outputs": [
        {
          "internalType": "uint256",
          "name": "",
          "type": "uint256"
        }
      ],
      "stateMutability": "view",
      "type": "function"
    },
    {
      "inputs": [
        {
          "internalType": "address",
          "name": "identity",
          "type": "address"
        }
      ],
      "name": "identityOwner",
      "outputs": [
        {
          "internalType": "address",
          "name": "",
          "type": "address"
        }
      ],
      "stateMutability": "view",
      "type": "function"
    },
    {
      "inputs": [],
      "name": "initialize",
      "outputs": [],
      "stateMutability": "nonpayable",
      "type": "function"
    },
    {
      "inputs": [],
      "name": "owner",
      "outputs": [
        {
          "internalType": "address",
          "name": "",
          "type": "address"
        }
      ],
      "stateMutability": "view",
      "type": "function"
    },
    {
      "inputs": [
        {
          "internalType": "address",
          "name": "",
          "type": "address"
        }
      ],
      "name": "owners",
      "outputs": [
        {
          "internalType": "address",
          "name": "",
          "type": "address"
        }
      ],
      "stateMutability": "view",
      "type": "function"
    },
    {
      "inputs": [],
      "name": "renounceOwnership",
      "outputs": [],
      "stateMutability": "nonpayable",
      "type": "function"
    },
    {
      "inputs": [
        {
          "internalType": "address",
          "name": "identity",
          "type": "address"
        },
        {
          "internalType": "bytes32",
          "name": "name",
          "type": "bytes32"
        },
        {
          "internalType": "bytes",
          "name": "value",
          "type": "bytes"
        },
        {
          "internalType": "bytes",
          "name": "signature",
          "type": "bytes"
        }
      ],
      "name": "revokeAttribute",
      "outputs": [],
      "stateMutability": "nonpayable",
      "type": "function"
    },
    {
      "inputs": [
        {
          "internalType": "address",
          "name": "identity",
          "type": "address"
        },
        {
          "internalType": "bytes32",
          "name": "delegateType",
          "type": "bytes32"
        },
        {
          "internalType": "address",
          "name": "delegate",
          "type": "address"
        },
        {
          "internalType": "bytes",
          "name": "signature",
          "type": "bytes"
        }
      ],
      "name": "revokeDelegate",
      "outputs": [],
      "stateMutability": "nonpayable",
      "type": "function"
    },
    {
      "inputs": [
        {
          "internalType": "address",
          "name": "identity",
          "type": "address"
        },
        {
          "internalType": "bytes32",
          "name": "name",
          "type": "bytes32"
        },
        {
          "internalType": "bytes",
          "name": "value",
          "type": "bytes"
        },
        {
          "internalType": "uint256",
          "name": "validity",
          "type": "uint256"
        },
        {
          "internalType": "address",
          "name": "proofId",
          "type": "address"
        },
        {
          "internalType": "bytes",
          "name": "proof",
          "type": "bytes"
        },
        {
          "internalType": "bytes",
          "name": "signature",
          "type": "bytes"
        }
      ],
      "name": "setAttribute",
      "outputs": [],
      "stateMutability": "nonpayable",
      "type": "function"
    },
    {
      "inputs": [
        {
          "internalType": "address",
          "name": "newOwner",
          "type": "address"
        }
      ],
      "name": "transferOwnership",
      "outputs": [],
      "stateMutability": "nonpayable",
      "type": "function"
    },
    {
      "inputs": [
        {
          "internalType": "address",
          "name": "identity",
          "type": "address"
        },
        {
          "internalType": "bytes32",
          "name": "delegateType",
          "type": "bytes32"
        },
        {
          "internalType": "address",
          "name": "delegate",
          "type": "address"
        }
      ],
      "name": "validDelegate",
      "outputs": [
        {
          "internalType": "bool",
          "name": "",
          "type": "bool"
        }
      ],
      "stateMutability": "view",
      "type": "function"
    }
  ],
  "bytecode": "0x608060405234801561001057600080fd5b5061230c806100206000396000f3fe608060405234801561001057600080fd5b50600436106101005760003560e01c80638733d4e811610097578063edffb2c311610066578063edffb2c314610289578063f2fde38b1461029c578063f9258000146102af578063f96d0f9f146102c257600080fd5b80638733d4e81461023f5780638da5cb5b1461025257806398c1601b14610263578063a5aac5ce1461027657600080fd5b8063650ce2c8116100d3578063650ce2c814610209578063715018a61461021c5780638129fc1c1461022457806382d3a6291461022c57600080fd5b8063022914a71461010557806317e70c671461014b5780632d0335ab14610160578063622b2a3c14610197575b600080fd5b61012e610113366004611ac4565b6065602052600090815260409020546001600160a01b031681565b6040516001600160a01b0390911681526020015b60405180910390f35b61015e610159366004611cd8565b6102e2565b005b61018961016e366004611ac4565b6001600160a01b031660009081526068602052604090205490565b604051908152602001610142565b6101f96101a5366004611c9c565b6001600160a01b039283166000908152606660209081526040808320815180840196909652815180870384018152958201825285519583019590952083529381528382209290941681529252902054421090565b6040519015158152602001610142565b61015e610217366004611ae6565b6103de565b61015e6104c9565b61015e6104dd565b61015e61023a366004611e37565b6105fd565b61012e61024d366004611ac4565b6106ec565b6033546001600160a01b031661012e565b61015e610271366004611dbf565b61071c565b61015e610284366004611c23565b6107f6565b61015e610297366004611b47565b610a16565b61015e6102aa366004611ac4565b610cdd565b61015e6102bd366004611d47565b610d6a565b6101896102d0366004611ac4565b60676020526000908152604090205481565b6001600160a01b038516600090815260686020818152604080842054815160608b811b6bffffffffffffffffffffffff1990811695830195909552603482018b905289901b90931660548401528284015280518083039093018352608890910190529061034e876106ec565b905061035c82858584610e69565b6103a15760405162461bcd60e51b8152602060048201526011602482015270496e76616c6964205369676e617475726560781b60448201526064015b60405180910390fd5b6001600160a01b03871660009081526068602052604081208054916103c583612279565b919050555050506103d7858585610eac565b5050505050565b6001600160a01b03841660009081526068602081815260408084205490516bffffffffffffffffffffffff1960608a811b8216948301949094529288901b9092166034830152604882015201604051602081830303815290604052905061044f81848461044a896106ec565b610e69565b61048f5760405162461bcd60e51b8152602060048201526011602482015270496e76616c6964205369676e617475726560781b6044820152606401610398565b6001600160a01b03851660009081526068602052604081208054916104b383612279565b9190505550506104c38484610f77565b50505050565b6104d1611010565b6104db600061106a565b565b600054610100900460ff16158080156104fd5750600054600160ff909116105b806105175750303b158015610517575060005460ff166001145b6105895760405162461bcd60e51b815260206004820152602e60248201527f496e697469616c697a61626c653a20636f6e747261637420697320616c72656160448201527f647920696e697469616c697a65640000000000000000000000000000000000006064820152608401610398565b6000805460ff1916600117905580156105ac576000805461ff0019166101001790555b6105b46110c9565b80156105fa576000805461ff0019169055604051600181527f7f26b83ff96e1f2b6a682f133852f6798a09c465da95921460cefb38474024989060200160405180910390a15b50565b6001600160a01b038a16600090815260686020908152604080832054905190929161063a918e918e918e918e918e918e918e918e918c9101611f68565b604051602081830303815290604052905060006106568d6106ec565b905061066482868684610e69565b6106a45760405162461bcd60e51b8152602060048201526011602482015270496e76616c6964205369676e617475726560781b6044820152606401610398565b6001600160a01b038d1660009081526068602052604081208054916106c883612279565b91905055505050506106e08a8a8a8a8a8a8a8a61113c565b50505050505050505050565b6001600160a01b0380821660009081526065602052604081205490911680156107155792915050565b5090919050565b6001600160a01b038616600090815260686020908152604080832054905161074d928a928a928a928a929101611f34565b60405160208183030381529060405290506000610769886106ec565b905061077782858584610e69565b6107b75760405162461bcd60e51b8152602060048201526011602482015270496e76616c6964205369676e617475726560781b6044820152606401610398565b6001600160a01b03881660009081526068602052604081208054916107db83612279565b919050555050506107ee8686868661127d565b505050505050565b60408051606089901b6bffffffffffffffffffffffff1916602082015281516014818303018152603490910190915260005b868110156108ad5781888883818110610843576108436122c0565b9050604002016000013589898481811061085f5761085f6122c0565b90506040020160200160208101906108779190611ac4565b60405160200161088993929190611fc6565b604051602081830303815290604052915080806108a590612279565b915050610828565b5060005b8481101561094857818686838181106108cc576108cc6122c0565b90506020028101906108de919061221f565b358787848181106108f1576108f16122c0565b9050602002810190610903919061221f565b6109119060208101906121b8565b6040516020016109249493929190612040565b6040516020818303038152906040529150808061094090612279565b9150506108b1565b506001600160a01b0388166000908152606860209081526040918290205491516109769284929091016120d1565b604051602081830303815290604052905061099681848461044a8c6106ec565b6109d65760405162461bcd60e51b8152602060048201526011602482015270496e76616c6964205369676e617475726560781b6044820152606401610398565b6001600160a01b03881660009081526068602052604081208054916109fa83612279565b919050555050610a0d8787878787611302565b50505050505050565b60408051606089901b6bffffffffffffffffffffffff1916602082015281516014818303018152603490910190915260005b86811015610aea5781888883818110610a6357610a636122c0565b90506060020160000135898984818110610a7f57610a7f6122c0565b9050606002016020016020810190610a979190611ac4565b8a8a85818110610aa957610aa96122c0565b90506060020160400135604051602001610ac69493929190611fff565b60405160208183030381529060405291508080610ae290612279565b915050610a48565b5060005b84811015610c185781868683818110610b0957610b096122c0565b9050602002810190610b1b91906121ff565b35878784818110610b2e57610b2e6122c0565b9050602002810190610b4091906121ff565b610b4e9060208101906121b8565b898986818110610b6057610b606122c0565b9050602002810190610b7291906121ff565b604001358a8a87818110610b8857610b886122c0565b9050602002810190610b9a91906121ff565b610bab906080810190606001611ac4565b8b8b88818110610bbd57610bbd6122c0565b9050602002810190610bcf91906121ff565b610bdd9060808101906121b8565b604051602001610bf4989796959493929190612072565b60405160208183030381529060405291508080610c1090612279565b915050610aee565b506001600160a01b038816600090815260686020908152604091829020549151610c469284929091016120d1565b6040516020818303038152906040529050610c6681848461044a8c6106ec565b610ca65760405162461bcd60e51b8152602060048201526011602482015270496e76616c6964205369676e617475726560781b6044820152606401610398565b6001600160a01b0388166000908152606860205260408120805491610cca83612279565b919050555050610a0d87878787876113ec565b610ce5611010565b6001600160a01b038116610d615760405162461bcd60e51b815260206004820152602660248201527f4f776e61626c653a206e6577206f776e657220697320746865207a65726f206160448201527f64647265737300000000000000000000000000000000000000000000000000006064820152608401610398565b6105fa8161106a565b6001600160a01b03861660009081526068602081815260408084205490516bffffffffffffffffffffffff1960608c811b821694830194909452603482018b90529289901b9092166054830152918101869052608881019190915260a80160405160208183030381529060405290506000610de4886106ec565b9050610df282858584610e69565b610e325760405162461bcd60e51b8152602060048201526011602482015270496e76616c6964205369676e617475726560781b6044820152606401610398565b6001600160a01b0388166000908152606860205260408120805491610e5683612279565b919050555050506107ee86868686611581565b600080610e77868686611645565b9050826001600160a01b0316816001600160a01b0316148015610ea257506001600160a01b03811615155b9695505050505050565b6001600160a01b03838116600081815260666020908152604080832081518084018990528251808203850181528184018085528151918601919091208652918452828520968816808652968452828520429081905586865260679094529382902054908890526060840195909552608083019190915260a0820193909352915190917f5a5084339536bcab65f20799fcc58724588145ca054bd2be626174b27ba156f7919081900360c00190a250506001600160a01b03166000908152606760205260409020439055565b6001600160a01b038281166000818152606560209081526040808320805473ffffffffffffffffffffffffffffffffffffffff1916958716958617905560678252918290205482519485529084015290917f38a5a6e68f30ed1ab45860a4afb34bcb2fc00f22ca462d249b8a8d40cda6f7a3910160405180910390a2506001600160a01b03166000908152606760205260409020439055565b6033546001600160a01b031633146104db5760405162461bcd60e51b815260206004820181905260248201527f4f776e61626c653a2063616c6c6572206973206e6f7420746865206f776e65726044820152606401610398565b603380546001600160a01b0383811673ffffffffffffffffffffffffffffffffffffffff19831681179093556040519116919082907f8be0079c531659141344cd1fd0a4f28419497f9722a3daafe3b4186f6b6457e090600090a35050565b600054610100900460ff166111345760405162461bcd60e51b815260206004820152602b60248201527f496e697469616c697a61626c653a20636f6e7472616374206973206e6f74206960448201526a6e697469616c697a696e6760a81b6064820152608401610398565b6104db61169b565b6001600160a01b0383161580159061115357508015155b156111ef576040516bffffffffffffffffffffffff1960608a811b8216602084015285901b16603482015260009060480160405160208183030381529060405290506111a181848487610e69565b6111ed5760405162461bcd60e51b815260206004820152600d60248201527f496e76616c69642050726f6f66000000000000000000000000000000000000006044820152606401610398565b505b6001600160a01b038816600081815260676020526040902054907fffd6ca24370dac6d448d1467f7f855c13b4f28e0b7923b7476e937cc65ef04ff8989896112378a42612235565b8989898960405161124f989796959493929190612160565b60405180910390a25050506001600160a01b0390951660009081526067602052604090204390555050505050565b60408051600080825260208083018085526001600160a01b03891680845260679092529382205490937fffd6ca24370dac6d448d1467f7f855c13b4f28e0b7923b7476e937cc65ef04ff936112db93899389938993839290916120f3565b60405180910390a25050506001600160a01b03166000908152606760205260409020439055565b60005b8381101561136e5761135c86868684818110611323576113236122c0565b9050604002016000013587878581811061133f5761133f6122c0565b90506040020160200160208101906113579190611ac4565b610eac565b8061136681612279565b915050611305565b5060005b818110156107ee576113da86848484818110611390576113906122c0565b90506020028101906113a2919061221f565b358585858181106113b5576113b56122c0565b90506020028101906113c7919061221f565b6113d59060208101906121b8565b61127d565b806113e481612279565b915050611372565b60005b83811015611474576114628686868481811061140d5761140d6122c0565b90506060020160000135878785818110611429576114296122c0565b90506060020160200160208101906114419190611ac4565b888886818110611453576114536122c0565b90506060020160400135611581565b8061146c81612279565b9150506113ef565b5060005b818110156107ee5761156f86848484818110611496576114966122c0565b90506020028101906114a891906121ff565b358585858181106114bb576114bb6122c0565b90506020028101906114cd91906121ff565b6114db9060208101906121b8565b8787878181106114ed576114ed6122c0565b90506020028101906114ff91906121ff565b60400135888888818110611515576115156122c0565b905060200281019061152791906121ff565b611538906080810190606001611ac4565b89898981811061154a5761154a6122c0565b905060200281019061155c91906121ff565b61156a9060808101906121b8565b61113c565b8061157981612279565b915050611478565b61158b8142612235565b6001600160a01b03858116600081815260666020908152604080832081518084018b9052825180820385018152908301835280519084012084528252808320948816835293905291909120919091557f5a5084339536bcab65f20799fcc58724588145ca054bd2be626174b27ba156f784846116078542612235565b6001600160a01b03898116600090815260676020908152604091829020548251968752949092169185019190915283015260608201526080016112db565b600080848051906020012090506116928185858080601f01602080910402602001604051908101604052809392919081815260200183838082843760009201919091525061170f92505050565b95945050505050565b600054610100900460ff166117065760405162461bcd60e51b815260206004820152602b60248201527f496e697469616c697a61626c653a20636f6e7472616374206973206e6f74206960448201526a6e697469616c697a696e6760a81b6064820152608401610398565b6104db3361106a565b600080600061171e8585611733565b9150915061172b81611779565b509392505050565b60008082516041141561176a5760208301516040840151606085015160001a61175e87828585611934565b94509450505050611772565b506000905060025b9250929050565b600081600481111561178d5761178d6122aa565b14156117965750565b60018160048111156117aa576117aa6122aa565b14156117f85760405162461bcd60e51b815260206004820152601860248201527f45434453413a20696e76616c6964207369676e617475726500000000000000006044820152606401610398565b600281600481111561180c5761180c6122aa565b141561185a5760405162461bcd60e51b815260206004820152601f60248201527f45434453413a20696e76616c6964207369676e6174757265206c656e677468006044820152606401610398565b600381600481111561186e5761186e6122aa565b14156118c75760405162461bcd60e51b815260206004820152602260248201527f45434453413a20696e76616c6964207369676e6174757265202773272076616c604482015261756560f01b6064820152608401610398565b60048160048111156118db576118db6122aa565b14156105fa5760405162461bcd60e51b815260206004820152602260248201527f45434453413a20696e76616c6964207369676e6174757265202776272076616c604482015261756560f01b6064820152608401610398565b6000807f7fffffffffffffffffffffffffffffff5d576e7357a4501ddfe92f46681b20a083111561196b5750600090506003611a18565b8460ff16601b1415801561198357508460ff16601c14155b156119945750600090506004611a18565b6040805160008082526020820180845289905260ff881692820192909252606081018690526080810185905260019060a0016020604051602081039080840390855afa1580156119e8573d6000803e3d6000fd5b5050604051601f1901519150506001600160a01b038116611a1157600060019250925050611a18565b9150600090505b94509492505050565b80356001600160a01b0381168114611a3857600080fd5b919050565b60008083601f840112611a4f57600080fd5b50813567ffffffffffffffff811115611a6757600080fd5b6020830191508360208260051b850101111561177257600080fd5b60008083601f840112611a9457600080fd5b50813567ffffffffffffffff811115611aac57600080fd5b60208301915083602082850101111561177257600080fd5b600060208284031215611ad657600080fd5b611adf82611a21565b9392505050565b60008060008060608587031215611afc57600080fd5b611b0585611a21565b9350611b1360208601611a21565b9250604085013567ffffffffffffffff811115611b2f57600080fd5b611b3b87828801611a82565b95989497509550505050565b60008060008060008060006080888a031215611b6257600080fd5b611b6b88611a21565b9650602088013567ffffffffffffffff80821115611b8857600080fd5b818a0191508a601f830112611b9c57600080fd5b813581811115611bab57600080fd5b8b6020606083028501011115611bc057600080fd5b6020830198508097505060408a0135915080821115611bde57600080fd5b611bea8b838c01611a3d565b909650945060608a0135915080821115611c0357600080fd5b50611c108a828b01611a82565b989b979a50959850939692959293505050565b60008060008060008060006080888a031215611c3e57600080fd5b611c4788611a21565b9650602088013567ffffffffffffffff80821115611c6457600080fd5b818a0191508a601f830112611c7857600080fd5b813581811115611c8757600080fd5b8b60208260061b8501011115611bc057600080fd5b600080600060608486031215611cb157600080fd5b611cba84611a21565b925060208401359150611ccf60408501611a21565b90509250925092565b600080600080600060808688031215611cf057600080fd5b611cf986611a21565b945060208601359350611d0e60408701611a21565b9250606086013567ffffffffffffffff811115611d2a57600080fd5b611d3688828901611a82565b969995985093965092949392505050565b60008060008060008060a08789031215611d6057600080fd5b611d6987611a21565b955060208701359450611d7e60408801611a21565b935060608701359250608087013567ffffffffffffffff811115611da157600080fd5b611dad89828a01611a82565b979a9699509497509295939492505050565b60008060008060008060808789031215611dd857600080fd5b611de187611a21565b955060208701359450604087013567ffffffffffffffff80821115611e0557600080fd5b611e118a838b01611a82565b90965094506060890135915080821115611e2a57600080fd5b50611dad89828a01611a82565b60008060008060008060008060008060e08b8d031215611e5657600080fd5b611e5f8b611a21565b995060208b0135985060408b013567ffffffffffffffff80821115611e8357600080fd5b611e8f8e838f01611a82565b909a50985060608d01359750889150611eaa60808e01611a21565b965060a08d0135915080821115611ec057600080fd5b611ecc8e838f01611a82565b909650945060c08d0135915080821115611ee557600080fd5b50611ef28d828e01611a82565b915080935050809150509295989b9194979a5092959850565b81835281816020850137506000828201602090810191909152601f909101601f19169091010190565b6bffffffffffffffffffffffff198660601b1681528460148201528284603483013760349201918201526054019392505050565b60006bffffffffffffffffffffffff19808c60601b1683528a6014840152888a603485013788830160348101899052606088901b82166054820152858760688301379094016068810193909352505060880198975050505050505050565b60008451611fd881846020890161224d565b919091019283525060601b6bffffffffffffffffffffffff19166020820152603401919050565b60008551612011818460208a0161224d565b919091019384525060609190911b6bffffffffffffffffffffffff191660208301526034820152605401919050565b60008551612052818460208a0161224d565b820185815283856020830137600093016020019283525090949350505050565b60008951612084818460208e0161224d565b8201898152878960208301378701602081018790526bffffffffffffffffffffffff19606087901b1660408201528385605483013760009301605401928352509098975050505050505050565b600083516120e381846020880161224d565b9190910191825250602001919050565b87815260c06020820152600061210d60c08301888a611f0b565b8660408401526001600160a01b03861660608401528281036080840152845180825261214081602084016020890161224d565b60a0939093019390935250601f01601f1916016020019695505050505050565b88815260c06020820152600061217a60c08301898b611f0b565b8760408401526001600160a01b038716606084015282810360808401526121a2818688611f0b565b9150508260a08301529998505050505050505050565b6000808335601e198436030181126121cf57600080fd5b83018035915067ffffffffffffffff8211156121ea57600080fd5b60200191503681900382131561177257600080fd5b60008235609e1983360301811261221557600080fd5b9190910192915050565b60008235603e1983360301811261221557600080fd5b6000821982111561224857612248612294565b500190565b60005b83811015612268578181015183820152602001612250565b838111156104c35750506000910152565b600060001982141561228d5761228d612294565b5060010190565b634e487b7160e01b600052601160045260246000fd5b634e487b7160e01b600052602160045260246000fd5b634e487b7160e01b600052603260045260246000fdfea264697066735822122026c7e805e5b015038af0d359b1f31586318c347c1f7b12a93aafcec4d71ec32d64736f6c63430008070033",
  "linkReferences": {},
  "deployedLinkReferences": {}
}