{
  "_format": "hh-sol-artifact-1",
  "contractName": "VeridaDIDRegistry",
  "sourceName": "contracts/VeridaDIDRegistry.sol",
  "abi": [
    {
      "anonymous": false,
      "inputs": [
        {
          "indexed": true,
          "internalType": "address",
          "name": "identity",
          "type": "address"
        },
        {
          "indexed": false,
          "internalType": "bytes32",
          "name": "name",
          "type": "bytes32"
        },
        {
          "indexed": false,
          "internalType": "bytes",
          "name": "value",
          "type": "bytes"
        },
        {
          "indexed": false,
          "internalType": "uint256",
          "name": "validTo",
          "type": "uint256"
        },
        {
          "indexed": false,
          "internalType": "uint256",
          "name": "previousChange",
          "type": "uint256"
        }
      ],
      "name": "DIDAttributeChanged",
      "type": "event"
    },
    {
      "anonymous": false,
      "inputs": [
        {
          "indexed": true,
          "internalType": "address",
          "name": "identity",
          "type": "address"
        },
        {
          "indexed": false,
          "internalType": "bytes32",
          "name": "delegateType",
          "type": "bytes32"
        },
        {
          "indexed": false,
          "internalType": "address",
          "name": "delegate",
          "type": "address"
        },
        {
          "indexed": false,
          "internalType": "uint256",
          "name": "validTo",
          "type": "uint256"
        },
        {
          "indexed": false,
          "internalType": "uint256",
          "name": "previousChange",
          "type": "uint256"
        }
      ],
      "name": "DIDDelegateChanged",
      "type": "event"
    },
    {
      "anonymous": false,
      "inputs": [
        {
          "indexed": true,
          "internalType": "address",
          "name": "identity",
          "type": "address"
        },
        {
          "indexed": false,
          "internalType": "address",
          "name": "owner",
          "type": "address"
        },
        {
          "indexed": false,
          "internalType": "uint256",
          "name": "previousChange",
          "type": "uint256"
        }
      ],
      "name": "DIDOwnerChanged",
      "type": "event"
    },
    {
      "anonymous": false,
      "inputs": [
        {
          "indexed": false,
          "internalType": "uint8",
          "name": "version",
          "type": "uint8"
        }
      ],
      "name": "Initialized",
      "type": "event"
    },
    {
      "anonymous": false,
      "inputs": [
        {
          "indexed": true,
          "internalType": "address",
          "name": "previousOwner",
          "type": "address"
        },
        {
          "indexed": true,
          "internalType": "address",
          "name": "newOwner",
          "type": "address"
        }
      ],
      "name": "OwnershipTransferred",
      "type": "event"
    },
    {
      "inputs": [
        {
          "internalType": "address",
          "name": "identity",
          "type": "address"
        },
        {
          "internalType": "bytes32",
          "name": "delegateType",
          "type": "bytes32"
        },
        {
          "internalType": "address",
          "name": "delegate",
          "type": "address"
        },
        {
          "internalType": "uint256",
          "name": "validity",
          "type": "uint256"
        },
        {
          "internalType": "bytes",
          "name": "signature",
          "type": "bytes"
        }
      ],
      "name": "addDelegate",
      "outputs": [],
      "stateMutability": "nonpayable",
      "type": "function"
    },
    {
      "inputs": [
        {
          "internalType": "address",
          "name": "identity",
          "type": "address"
        },
        {
          "components": [
            {
              "internalType": "bytes32",
              "name": "delegateType",
              "type": "bytes32"
            },
            {
              "internalType": "address",
              "name": "delegate",
              "type": "address"
            },
            {
              "internalType": "uint256",
              "name": "validity",
              "type": "uint256"
            }
          ],
          "internalType": "struct VeridaDIDRegistry.DelegateParam[]",
          "name": "delegateParams",
          "type": "tuple[]"
        },
        {
          "components": [
            {
              "internalType": "bytes32",
              "name": "name",
              "type": "bytes32"
            },
            {
              "internalType": "bytes",
              "name": "value",
              "type": "bytes"
            },
            {
              "internalType": "uint256",
              "name": "validity",
              "type": "uint256"
            }
          ],
          "internalType": "struct VeridaDIDRegistry.AttributeParam[]",
          "name": "attributeParams",
          "type": "tuple[]"
        },
        {
          "internalType": "bytes",
          "name": "signature",
          "type": "bytes"
        }
      ],
      "name": "bulkAdd",
      "outputs": [],
      "stateMutability": "nonpayable",
      "type": "function"
    },
    {
      "inputs": [
        {
          "internalType": "address",
          "name": "identity",
          "type": "address"
        },
        {
          "components": [
            {
              "internalType": "bytes32",
              "name": "delegateType",
              "type": "bytes32"
            },
            {
              "internalType": "address",
              "name": "delegate",
              "type": "address"
            }
          ],
          "internalType": "struct VeridaDIDRegistry.RevokeDelegateParam[]",
          "name": "delegateParams",
          "type": "tuple[]"
        },
        {
          "components": [
            {
              "internalType": "bytes32",
              "name": "name",
              "type": "bytes32"
            },
            {
              "internalType": "bytes",
              "name": "value",
              "type": "bytes"
            }
          ],
          "internalType": "struct VeridaDIDRegistry.RevokeAttributeParam[]",
          "name": "attributeParams",
          "type": "tuple[]"
        },
        {
          "internalType": "bytes",
          "name": "signature",
          "type": "bytes"
        }
      ],
      "name": "bulkRevoke",
      "outputs": [],
      "stateMutability": "nonpayable",
      "type": "function"
    },
    {
      "inputs": [
        {
          "internalType": "address",
          "name": "identity",
          "type": "address"
        },
        {
          "internalType": "address",
          "name": "newOwner",
          "type": "address"
        },
        {
          "internalType": "bytes",
          "name": "signature",
          "type": "bytes"
        }
      ],
      "name": "changeOwner",
      "outputs": [],
      "stateMutability": "nonpayable",
      "type": "function"
    },
    {
      "inputs": [
        {
          "internalType": "address",
          "name": "",
          "type": "address"
        }
      ],
      "name": "changed",
      "outputs": [
        {
          "internalType": "uint256",
          "name": "",
          "type": "uint256"
        }
      ],
      "stateMutability": "view",
      "type": "function"
    },
    {
      "inputs": [
        {
          "internalType": "address",
          "name": "",
          "type": "address"
        },
        {
          "internalType": "bytes32",
          "name": "",
          "type": "bytes32"
        },
        {
          "internalType": "address",
          "name": "",
          "type": "address"
        }
      ],
      "name": "delegates",
      "outputs": [
        {
          "internalType": "uint256",
          "name": "",
          "type": "uint256"
        }
      ],
      "stateMutability": "view",
      "type": "function"
    },
    {
      "inputs": [
        {
          "internalType": "address",
          "name": "identity",
          "type": "address"
        }
      ],
      "name": "identityOwner",
      "outputs": [
        {
          "internalType": "address",
          "name": "",
          "type": "address"
        }
      ],
      "stateMutability": "view",
      "type": "function"
    },
    {
      "inputs": [],
      "name": "initialize",
      "outputs": [],
      "stateMutability": "nonpayable",
      "type": "function"
    },
    {
      "inputs": [
        {
          "internalType": "address",
          "name": "",
          "type": "address"
        }
      ],
      "name": "nonce",
      "outputs": [
        {
          "internalType": "uint256",
          "name": "",
          "type": "uint256"
        }
      ],
      "stateMutability": "view",
      "type": "function"
    },
    {
      "inputs": [],
      "name": "owner",
      "outputs": [
        {
          "internalType": "address",
          "name": "",
          "type": "address"
        }
      ],
      "stateMutability": "view",
      "type": "function"
    },
    {
      "inputs": [
        {
          "internalType": "address",
          "name": "",
          "type": "address"
        }
      ],
      "name": "owners",
      "outputs": [
        {
          "internalType": "address",
          "name": "",
          "type": "address"
        }
      ],
      "stateMutability": "view",
      "type": "function"
    },
    {
      "inputs": [],
      "name": "renounceOwnership",
      "outputs": [],
      "stateMutability": "nonpayable",
      "type": "function"
    },
    {
      "inputs": [
        {
          "internalType": "address",
          "name": "identity",
          "type": "address"
        },
        {
          "internalType": "bytes32",
          "name": "name",
          "type": "bytes32"
        },
        {
          "internalType": "bytes",
          "name": "value",
          "type": "bytes"
        },
        {
          "internalType": "bytes",
          "name": "signature",
          "type": "bytes"
        }
      ],
      "name": "revokeAttribute",
      "outputs": [],
      "stateMutability": "nonpayable",
      "type": "function"
    },
    {
      "inputs": [
        {
          "internalType": "address",
          "name": "identity",
          "type": "address"
        },
        {
          "internalType": "bytes32",
          "name": "delegateType",
          "type": "bytes32"
        },
        {
          "internalType": "address",
          "name": "delegate",
          "type": "address"
        },
        {
          "internalType": "bytes",
          "name": "signature",
          "type": "bytes"
        }
      ],
      "name": "revokeDelegate",
      "outputs": [],
      "stateMutability": "nonpayable",
      "type": "function"
    },
    {
      "inputs": [
        {
          "internalType": "address",
          "name": "identity",
          "type": "address"
        },
        {
          "internalType": "bytes32",
          "name": "name",
          "type": "bytes32"
        },
        {
          "internalType": "bytes",
          "name": "value",
          "type": "bytes"
        },
        {
          "internalType": "uint256",
          "name": "validity",
          "type": "uint256"
        },
        {
          "internalType": "bytes",
          "name": "signature",
          "type": "bytes"
        }
      ],
      "name": "setAttribute",
      "outputs": [],
      "stateMutability": "nonpayable",
      "type": "function"
    },
    {
      "inputs": [
        {
          "internalType": "address",
          "name": "newOwner",
          "type": "address"
        }
      ],
      "name": "transferOwnership",
      "outputs": [],
      "stateMutability": "nonpayable",
      "type": "function"
    },
    {
      "inputs": [
        {
          "internalType": "address",
          "name": "identity",
          "type": "address"
        },
        {
          "internalType": "bytes32",
          "name": "delegateType",
          "type": "bytes32"
        },
        {
          "internalType": "address",
          "name": "delegate",
          "type": "address"
        }
      ],
      "name": "validDelegate",
      "outputs": [
        {
          "internalType": "bool",
          "name": "",
          "type": "bool"
        }
      ],
      "stateMutability": "view",
      "type": "function"
    }
  ],
  "bytecode": "0x608060405234801561001057600080fd5b506119ce806100206000396000f3fe608060405234801561001057600080fd5b506004361061011b5760003560e01c80638129fc1c116100b2578063a5aac5ce11610081578063f2fde38b11610066578063f2fde38b146102df578063f9258000146102f2578063f96d0f9f1461030557600080fd5b8063a5aac5ce146102b9578063ba5424b1146102cc57600080fd5b80638129fc1c1461027a5780638733d4e8146102825780638da5cb5b1461029557806398c1601b146102a657600080fd5b8063622b2a3c116100ee578063622b2a3c146101cd578063650ce2c81461023f57806370ae92d214610252578063715018a61461027257600080fd5b8063022914a7146101205780630d44625b1461016657806317e70c67146101a5578063554f2d2f146101ba575b600080fd5b61014961012e3660046112fb565b6065602052600090815260409020546001600160a01b031681565b6040516001600160a01b0390911681526020015b60405180910390f35b610197610174366004611582565b606660209081526000938452604080852082529284528284209052825290205481565b60405190815260200161015d565b6101b86101b33660046115be565b610325565b005b6101b86101c8366004611708565b6103db565b61022f6101db366004611582565b6001600160a01b039283166000908152606660209081526040808320815180840196909652815180870384018152958201825285519583019590952083529381528382209290941681529252902054421090565b604051901515815260200161015d565b6101b861024d36600461131d565b61048e565b6101976102603660046112fb565b60686020526000908152604090205481565b6101b861053d565b6101b8610551565b6101496102903660046112fb565b610671565b6033546001600160a01b0316610149565b6101b86102b4366004611694565b6106a1565b6101b86102c736600461145a565b610747565b6101b86102da36600461137e565b6107ed565b6101b86102ed3660046112fb565b6108a2565b6101b861030036600461161c565b61092f565b6101976103133660046112fb565b60676020526000908152604090205481565b84828260006040518060800160405280604181526020016119586041913990506103888184848080601f01602080910402602001604051908101604052809392919081815260200183838082843760009201919091525092939250506109d69050565b6103c55760405162461bcd60e51b81526020600482015260096024820152683130b22fb0b1ba37b960b91b60448201526064015b60405180910390fd5b6103d0898989610a3a565b505050505050505050565b858282600060405180608001604052806041815260200161195860419139905061043e8184848080601f01602080910402602001604051908101604052809392919081815260200183838082843760009201919091525092939250506109d69050565b6104765760405162461bcd60e51b81526020600482015260096024820152683130b22fb0b1ba37b960b91b60448201526064016103bc565b6104828a8a8a8a610aff565b50505050505050505050565b83828260006040518060800160405280604181526020016119586041913990506104f18184848080601f01602080910402602001604051908101604052809392919081815260200183838082843760009201919091525092939250506109d69050565b6105295760405162461bcd60e51b81526020600482015260096024820152683130b22fb0b1ba37b960b91b60448201526064016103bc565b6105338888610b87565b5050505050505050565b610545610c20565b61054f6000610c7a565b565b600054610100900460ff16158080156105715750600054600160ff909116105b8061058b5750303b15801561058b575060005460ff166001145b6105fd5760405162461bcd60e51b815260206004820152602e60248201527f496e697469616c697a61626c653a20636f6e747261637420697320616c72656160448201527f647920696e697469616c697a656400000000000000000000000000000000000060648201526084016103bc565b6000805460ff191660011790558015610620576000805461ff0019166101001790555b610628610cd9565b801561066e576000805461ff0019169055604051600181527f7f26b83ff96e1f2b6a682f133852f6798a09c465da95921460cefb38474024989060200160405180910390a15b50565b6001600160a01b03808216600090815260656020526040812054909116801561069a5792915050565b5090919050565b84828260006040518060800160405280604181526020016119586041913990506107048184848080601f01602080910402602001604051908101604052809392919081815260200183838082843760009201919091525092939250506109d69050565b61073c5760405162461bcd60e51b81526020600482015260096024820152683130b22fb0b1ba37b960b91b60448201526064016103bc565b6103d0898989610d4c565b84828260006040518060800160405280604181526020016119586041913990506107aa8184848080601f01602080910402602001604051908101604052809392919081815260200183838082843760009201919091525092939250506109d69050565b6107e25760405162461bcd60e51b81526020600482015260096024820152683130b22fb0b1ba37b960b91b60448201526064016103bc565b6103d0898989610d99565b86828260006040518060800160405280604181526020016119586041913990506108508184848080601f01602080910402602001604051908101604052809392919081815260200183838082843760009201919091525092939250506109d69050565b6108885760405162461bcd60e51b81526020600482015260096024820152683130b22fb0b1ba37b960b91b60448201526064016103bc565b6108958b8b8b8b8b610e66565b5050505050505050505050565b6108aa610c20565b6001600160a01b0381166109265760405162461bcd60e51b815260206004820152602660248201527f4f776e61626c653a206e6577206f776e657220697320746865207a65726f206160448201527f646472657373000000000000000000000000000000000000000000000000000060648201526084016103bc565b61066e81610c7a565b85828260006040518060800160405280604181526020016119586041913990506109928184848080601f01602080910402602001604051908101604052809392919081815260200183838082843760009201919091525092939250506109d69050565b6109ca5760405162461bcd60e51b81526020600482015260096024820152683130b22fb0b1ba37b960b91b60448201526064016103bc565b6104828a8a8a8a610fd3565b8151815160009160019181148083146109f25760009250610a30565b600160208701838101602088015b600284838510011415610a2b578051835114610a1f5760009650600093505b60209283019201610a00565b505050505b5090949350505050565b6001600160a01b03838116600081815260666020908152604080832081518084018990528251808203850181528184018085528151918601919091208652918452828520968816808652968452828520429081905586865260679094529190932054928790526060810194909452608084015260a0830152907f5a5084339536bcab65f20799fcc58724588145ca054bd2be626174b27ba156f79060c0015b60405180910390a250506001600160a01b03166000908152606760205260409020439055565b6001600160a01b0384167f18ab6b2ae3d64306c00ce663125f2bd680e441a098de1635bd7ad8b0d44965e48484610b3685426118e2565b6001600160a01b03891660009081526067602052604090819020549051610b6094939291906117d1565b60405180910390a25050506001600160a01b03166000908152606760205260409020439055565b6001600160a01b038281166000818152606560209081526040808320805473ffffffffffffffffffffffffffffffffffffffff1916958716958617905560678252918290205482519485529084015290917f38a5a6e68f30ed1ab45860a4afb34bcb2fc00f22ca462d249b8a8d40cda6f7a3910160405180910390a2506001600160a01b03166000908152606760205260409020439055565b6033546001600160a01b0316331461054f5760405162461bcd60e51b815260206004820181905260248201527f4f776e61626c653a2063616c6c6572206973206e6f7420746865206f776e657260448201526064016103bc565b603380546001600160a01b0383811673ffffffffffffffffffffffffffffffffffffffff19831681179093556040519116919082907f8be0079c531659141344cd1fd0a4f28419497f9722a3daafe3b4186f6b6457e090600090a35050565b600054610100900460ff16610d445760405162461bcd60e51b815260206004820152602b60248201527f496e697469616c697a61626c653a20636f6e7472616374206973206e6f74206960448201526a6e697469616c697a696e6760a81b60648201526084016103bc565b61054f611097565b6001600160a01b0383166000818152606760205260408082205490517f18ab6b2ae3d64306c00ce663125f2bd680e441a098de1635bd7ad8b0d44965e492610ad9928792879291906117d1565b60005b8251811015610dfc57610dea84848381518110610dbb57610dbb61192b565b602002602001015160000151858481518110610dd957610dd961192b565b602002602001015160200151610a3a565b80610df4816118fa565b915050610d9c565b5060005b8151811015610e6057610e4e84838381518110610e1f57610e1f61192b565b602002602001015160000151848481518110610e3d57610e3d61192b565b602002602001015160200151610d4c565b80610e58816118fa565b915050610e00565b50505050565b60005b83811015610eee57610edc86868684818110610e8757610e8761192b565b90506060020160000135878785818110610ea357610ea361192b565b9050606002016020016020810190610ebb91906112fb565b888886818110610ecd57610ecd61192b565b90506060020160400135610fd3565b80610ee6816118fa565b915050610e69565b5060005b81811015610fcb57610fb986848484818110610f1057610f1061192b565b9050602002810190610f229190611844565b35858585818110610f3557610f3561192b565b9050602002810190610f479190611844565b610f559060208101906117fd565b8080601f016020809104026020016040519081016040528093929190818152602001838380828437600092019190915250899250889150879050818110610f9e57610f9e61192b565b9050602002810190610fb09190611844565b60400135610aff565b80610fc3816118fa565b915050610ef2565b505050505050565b610fdd81426118e2565b6001600160a01b03858116600081815260666020908152604080832081518084018b9052825180820385018152908301835280519084012084528252808320948816835293905291909120919091557f5a5084339536bcab65f20799fcc58724588145ca054bd2be626174b27ba156f7848461105985426118e2565b6001600160a01b0389811660009081526067602090815260409182902054825196875294909216918501919091528301526060820152608001610b60565b600054610100900460ff166111025760405162461bcd60e51b815260206004820152602b60248201527f496e697469616c697a61626c653a20636f6e7472616374206973206e6f74206960448201526a6e697469616c697a696e6760a81b60648201526084016103bc565b61054f33610c7a565b80356001600160a01b038116811461112257600080fd5b919050565b60008083601f84011261113957600080fd5b50813567ffffffffffffffff81111561115157600080fd5b6020830191508360208260051b850101111561116c57600080fd5b9250929050565b600082601f83011261118457600080fd5b81356020611199611194836118be565b61188d565b80838252828201915082860187848660051b89010111156111b957600080fd5b60005b8581101561123c57813567ffffffffffffffff808211156111dc57600080fd5b908901906040828c03601f19018113156111f557600080fd5b6111fd611864565b83890135815290830135908282111561121557600080fd5b6112238d8a8487010161128b565b818a0152875250505092840192908401906001016111bc565b5090979650505050505050565b60008083601f84011261125b57600080fd5b50813567ffffffffffffffff81111561127357600080fd5b60208301915083602082850101111561116c57600080fd5b600082601f83011261129c57600080fd5b813567ffffffffffffffff8111156112b6576112b6611941565b6112c9601f8201601f191660200161188d565b8181528460208386010111156112de57600080fd5b816020850160208301376000918101602001919091529392505050565b60006020828403121561130d57600080fd5b6113168261110b565b9392505050565b6000806000806060858703121561133357600080fd5b61133c8561110b565b935061134a6020860161110b565b9250604085013567ffffffffffffffff81111561136657600080fd5b61137287828801611249565b95989497509550505050565b60008060008060008060006080888a03121561139957600080fd5b6113a28861110b565b9650602088013567ffffffffffffffff808211156113bf57600080fd5b818a0191508a601f8301126113d357600080fd5b8135818111156113e257600080fd5b8b60206060830285010111156113f757600080fd5b6020830198508097505060408a013591508082111561141557600080fd5b6114218b838c01611127565b909650945060608a013591508082111561143a57600080fd5b506114478a828b01611249565b989b979a50959850939692959293505050565b60008060008060006080868803121561147257600080fd5b61147b8661110b565b945060208087013567ffffffffffffffff8082111561149957600080fd5b818901915089601f8301126114ad57600080fd5b81356114bb611194826118be565b8082825285820191508585018d878560061b88010111156114db57600080fd5b600095505b83861015611528576040818f0312156114f857600080fd5b611500611864565b8135815261150f88830161110b565b81890152835260019590950194918601916040016114e0565b5098505050604089013592508083111561154157600080fd5b61154d8a848b01611173565b9550606089013592508083111561156357600080fd5b505061157188828901611249565b969995985093965092949392505050565b60008060006060848603121561159757600080fd5b6115a08461110b565b9250602084013591506115b56040850161110b565b90509250925092565b6000806000806000608086880312156115d657600080fd5b6115df8661110b565b9450602086013593506115f46040870161110b565b9250606086013567ffffffffffffffff81111561161057600080fd5b61157188828901611249565b60008060008060008060a0878903121561163557600080fd5b61163e8761110b565b9550602087013594506116536040880161110b565b935060608701359250608087013567ffffffffffffffff81111561167657600080fd5b61168289828a01611249565b979a9699509497509295939492505050565b6000806000806000608086880312156116ac57600080fd5b6116b58661110b565b945060208601359350604086013567ffffffffffffffff808211156116d957600080fd5b6116e589838a0161128b565b945060608801359150808211156116fb57600080fd5b5061157188828901611249565b60008060008060008060a0878903121561172157600080fd5b61172a8761110b565b955060208701359450604087013567ffffffffffffffff8082111561174e57600080fd5b61175a8a838b0161128b565b955060608901359450608089013591508082111561177757600080fd5b5061168289828a01611249565b6000815180845260005b818110156117aa5760208185018101518683018201520161178e565b818111156117bc576000602083870101525b50601f01601f19169290920160200192915050565b8481526080602082015260006117ea6080830186611784565b6040830194909452506060015292915050565b6000808335601e1984360301811261181457600080fd5b83018035915067ffffffffffffffff82111561182f57600080fd5b60200191503681900382131561116c57600080fd5b60008235605e1983360301811261185a57600080fd5b9190910192915050565b6040805190810167ffffffffffffffff8111828210171561188757611887611941565b60405290565b604051601f8201601f1916810167ffffffffffffffff811182821017156118b6576118b6611941565b604052919050565b600067ffffffffffffffff8211156118d8576118d8611941565b5060051b60200190565b600082198211156118f5576118f5611915565b500190565b600060001982141561190e5761190e611915565b5060010190565b634e487b7160e01b600052601160045260246000fd5b634e487b7160e01b600052603260045260246000fd5b634e487b7160e01b600052604160045260246000fdfe67de2d20880a7d27b71cdcb38817ba95800ca82dff557cedd91b96aacb9062e80b9e0b8cb9614fd61ce364502349e9079c26abaa21890d7bc2f1f6c8ff77f6261ca264697066735822122001a8144e3903c32ab12e7bef402722fe835c09ab0b32b4c02ed892dfbfb819cd64736f6c63430008070033",
  "linkReferences": {},
  "deployedLinkReferences": {}
}